:100000000C945E000C9486000C9486000C94860080
:100010000C9486000C9486000C9486000C94860048
:100020000C9486000C9486000C9486000C94860038
:100030000C9486000C9486000C9486000C94860028
:100040000C9454080C9486000C949D060C94CF06D6
:100050000C9486000C9486000C9486000C94860008
:100060000C9486000C948600000000080002010039
:100070000003040700000000000000000102040863
:100080001020408001020408102001020408102002
:10009000040404040404040402020202020203032E
:1000A0000303030300000000250028002B000000CC
:1000B0000000240027002A001C05FF0611241FBE93
:1000C000CFEFD8E0DEBFCDBF11E0A0E0B1E0EAE1C4
:1000D000F4E102C005900D92A032B107D9F722E0F9
:1000E000A0E2B1E001C01D92A635B207E1F710E031
:1000F000CCEBD0E004C02297FE010E94070AC83B67
:10010000D107C9F70E9445080C940B0A0C94000013
:10011000EF92FF921F93CF93DF931F92CDB7DEB77D
:100120007C01162F87E2D7011D928A95E9F7F70126
:10013000B79680E6DF011D928A95E9F761E0812F8D
:1001400079830E945F09F701E957FF4F1083798196
:1001500071830F90DF91CF911F91FF90EF900895E1
:100160000F931F93CF93DF93EC018C0109571F4F1F
:1001700060E0F80180810E94980980E090E02DEC19
:100180008732910558F4FE01E80FF91F30813EBD1A
:1001900000000DB407FEFDCF3EB509C02EBD000026
:1001A0000DB407FEFDCF3EB5FE01E80FF91F37A3E2
:1001B00001968036910521F79CA993FB882780F949
:1001C000880F92FB222720F9820F880F91FB2227AC
:1001D00020F9820F880F9170890F91E0873029F004
:1001E000882319F0813009F090E02CA990FB20F9C8
:1001F0002CAB21E09FEF980F933008F020E09CA9F2
:1002000020FB91F99CAB21E09DEF980F933008F013
:1002100020E09CA920FB92F99CAB855091E08330B3
:1002200008F090E08CA990FB83F98CAB61E0F801B9
:100230008081DF91CF911F910F910C949809CF93FA
:10024000C82F843660F460E380EB91E00E9482075F
:10025000CA3028F460E380EB91E00E9482074AE014
:1002600050E06C2F80EB91E0CF910C943708CF9346
:10027000DF93EC01C03187E2D807F0F460E380EB54
:1002800091E00E948207C83E83E0D807A8F460E3AB
:1002900080EB91E00E948207C436D10568F460E3E8
:1002A00080EB91E00E948207CA30D10528F460E318
:1002B00080EB91E00E9482074AE050E0BE0180EBB3
:1002C00091E0DF91CF910C943E0861E08AE00E94BA
:1002D00098098CB5837F8CBD8CB58C7F81608CBD7B
:1002E0008DB58E7F8DBD8CB58F7D8CBD0E94220516
:1002F00026E040E052EC61E070E080EB91E00C948D
:100300003B0686E291E00E94B00060915B0162953D
:1003100061704AE050E070E080EB91E00E943E089E
:1003200060915B0166FB662760F94AE050E070E08F
:1003300080EB91E00E943E0860915B0167FB6627BD
:1003400060F970E04AE050E080EB91E00E943E08E6
:1003500060915B0165FB662760F94AE050E070E060
:1003600080EB91E00E943E0860915A0161704AE082
:1003700050E070E080EB91E00E943E0860915A01ED
:10038000669561704AE050E070E080EB91E00E9479
:100390003E0860915A0162FB662760F94AE050E02E
:1003A00070E080EB91E00E943E0860915A0163FB8F
:1003B000662760F94AE050E070E080EB91E00E942F
:1003C0003E0860915B0162FB662760F94AE050E0FD
:1003D00070E080EB91E00E943E0860915B0163FB5E
:1003E000662760F94AE050E070E080EB91E00E94FF
:1003F0003E0860915B0161704AE050E070E080EB84
:1004000091E00E943E0860915B01669561704AE050
:1004100050E070E080EB91E00E943E0860915A014C
:1004200067FB662760F970E04AE050E080EB91E0FE
:100430000E943E0860915A0166FB662760F94AE017
:1004400050E070E080EB91E00E943E0860915A011C
:1004500065FB662760F94AE050E070E080EB91E0D0
:100460000E943E0860915A01629561704AE050E036
:1004700070E080EB91E00E943E0860915C01617049
:100480004AE050E070E080EB91E00E943E0860910D
:100490005C01669561704AE050E070E080EB91E0AD
:1004A0000E943E0869E080EB91E00E948207809103
:1004B00056010E941F0160E280EB91E00E948207DA
:1004C000809157010E941F0160E280EB91E00E9441
:1004D0008207809158010E941F0160E280EB91E049
:1004E0000E948207809159010E941F0160E280EB07
:1004F00091E00E94820780915D010E941F0160E2ED
:1005000080EB91E00E94820780915E010E941F01B2
:1005100069E080EB91E00E94820764E071E080EB8B
:1005200091E00E94800760E280EB91E00E948207E8
:10053000809178018F770E941F0160E280EB91E04B
:100540000E9482076091780167FB662760F94AE0A4
:1005500050E080EB91E00E94370860E280EB91E090
:100560000E94820790917A01809179019F700E9488
:10057000370160E280EB91E00E94820780917A016E
:1005800082958F7090917B01292F2295207F822B5D
:1005900092959F700E94370169E080EB91E00E9484
:1005A000820768E071E080EB91E00E94800760E2E2
:1005B00080EB91E00E94820780917C018F770E94FE
:1005C0001F0160E280EB91E00E94820760917C0154
:1005D00067FB662760F94AE050E080EB91E00E94FB
:1005E000370860E280EB91E00E94820790917E01E3
:1005F00080917D019F700E94370160E280EB91E065
:100600000E94820780917E0182958F7090917F0178
:10061000292F2295207F822B92959F700E9437016F
:1006200069E080EB91E00E9482076091680170911F
:1006300069014AE050E080EB91E00E94220860E20C
:1006400080EB91E00E94820760916A0170916B01DA
:100650004AE050E080EB91E00E94220860E280EBEB
:1006600091E00E94820760916C0170916D014AE0F7
:1006700050E080EB91E00E94220860E280EB91E084
:100680000E94820760916201709163014AE050E02C
:1006900080EB91E00E94220860E280EB91E00E94F2
:1006A000820760916401709165014AE050E080EB3F
:1006B00091E00E94220860E280EB91E00E948207B4
:1006C00060916601709167014AE050E080EB91E033
:1006D0000E94220869E080EB91E00E9482078091ED
:1006E000200120915B01811110C0809121018111B5
:1006F00015C027FF13C081E08093200188EE93E0AE
:10070000909302018093010109C0813039F48091F6
:100710002101811103C027FD10922001221F2227F1
:10072000221F2093210180912001817090912F013F
:1007300080FB94F980FB95F980FB96F980FB97F993
:100740002091300180FB20F980FB21F980FB22F908
:1007500080FB23F980FB24F980FB25F980FB26F937
:1007600080FB27F9209330012091310180FB20F993
:1007700080FB21F980FB22F980FB23F980FB24F91F
:1007800080FB25F92093310120912E0180FB20F977
:1007900080FB21F980FB22F980FB23F980FB24F9FF
:1007A00080FB25F980FB26F980FB27F920932E0199
:1007B0009E7F982B80FB91F980FB92F980FB93F947
:1007C00090932F012091010130910201C9016AE14A
:1007D00074E00E94CF09E0914B0160FBE6F9C9018A
:1007E0006CE474E00E94CF0960FBE4F9C9016EE794
:1007F00074E00E94CF0960FBE5F9C90160EB74E089
:100800000E94CF0960FBE7F9C90162EE74E00E9423
:10081000CF0940914A0160FB40F9C90164E175E0EC
:100820000E94CF0960FB41F9C90166E475E00E94AE
:10083000CF0960FB42F9C90168E775E00E94CF0962
:1008400060FB43F9C9016AEA75E00E94CF0960FBC9
:10085000E2F9C9016CED75E00E94CF0960FBE3F994
:10086000C9016EE076E00E94CF09F62FC90160E46D
:1008700076E00E94CF09F0FBE0F960FBE1F9E0933C
:100880004B01C90162E776E00E94CF0960FB44F9A1
:10089000C90164EA76E00E94CF0960FB45F9C9010D
:1008A00066ED76E00E94CF0960FB46F9C90168E079
:1008B00077E00E94CF0960FB47F940934A01C901E4
:1008C0006AE377E00E94CF0940914C0160FB41F957
:1008D000C9016CE677E00E94CF0960FB40F94093C4
:1008E0004C01309333012093320130933501209332
:1008F000340130933701209336013093390120932E
:10090000380130933B0120933A0130933D0120930D
:100910003C0130933F0120933E01309341012093ED
:1009200040013093430120934201309345012093CD
:1009300044013093470120934601309349012093AD
:100940004801283E43E0340720F481E08093000111
:1009500006C0213D57E0350710F01092000180914C
:100960000001813019F4265F3F4F02C02A5031093F
:1009700030930201209301018091260181608093D0
:1009800026013091240140912501209103012093FB
:100990002701409328013093290110922A011092D7
:1009A0002B0180912201909123018F3F910538F412
:1009B0002150209303014F5F4093250119C08E3FC2
:1009C00051E0950738F44150409325013F5F309343
:1009D00024010EC08D3F42E0940730F43150309333
:1009E00024012F5F20930301811553E0950730F414
:1009F0000196909323018093220104C01092230159
:100A000010922201809126018460826080932601E9
:100A100080915E0180932D0180915D0180932C0176
:100A20006CE071E080EB91E00E94800764E170E08F
:100A300080E090E00C94C1086AE070E086E291E00A
:100A40000C948800CF93CFB7F8948091AF018111B7
:100A500027C0EAE9F0E08491E6E8F0E09491E82F1D
:100A6000F0E0EE0FFF1FE255FF4FA591B4918C917E
:100A7000892321F461E08AE00E94980961E08AE01C
:100A80000E945F098CB580618CBD8CB580648CBD83
:100A900061E08DE00E945F0961E08BE00E945F09E8
:100AA0008091AF018F5F8093AF01CFBFCF91089549
:100AB000FC01818D228D90E0805C9F4F821B91090B
:100AC0008F7399270895FC01918D828D981731F0CD
:100AD000828DE80FF11D858D90E008958FEF9FEFD7
:100AE0000895FC01918D828D981761F0828DDF0150
:100AF000A80FB11D5D968C91928D9F5F9F73928F11
:100B000090E008958FEF9FEF089585EF96E0892B91
:100B100049F080E090E0892B29F00E94F5068111D0
:100B20000C9400000895FC01848DDF01A80FB11D15
:100B3000A35ABF4F2C91848D90E001968F73992713
:100B4000848FA689B7892C93A089B1898C91806400
:100B50008C93938D848D981306C00288F389E02DC1
:100B600080818F7D80830895CF93DF93EC01888D02
:100B70008823C9F0EA89FB89808185FD05C0A889A1
:100B8000B9898C9186FD0FC00FB607FCF5CF808127
:100B900085FFF2CFA889B9898C9185FFEDCFCE0171
:100BA0000E949305E7CFDF91CF910895CF92DF9216
:100BB000FF920F931F93CF93DF931F92CDB7DEB7B2
:100BC0006C0181E0D60158968C9358975B969C9166
:100BD0005B975C968C915C97981307C05096ED914B
:100BE000FC915197808185FD2EC0F601038D10E0A8
:100BF0000F5F1F4F0F731127F02EF601848DF8122F
:100C000011C00FB607FCF9CFD6015096ED91FC91BB
:100C10005197808185FFF1CFC60169830E949305BA
:100C20006981EBCF838DE80FF11DE35AFF4F60839D
:100C3000D6015B960C935B975296ED91FC9153977E
:100C4000808180620CC0D6015696ED91FC91579739
:100C500060835096ED91FC915197808180648083F0
:100C600081E090E00F90DF91CF911F910F91FF9065
:100C7000DF90CF900895BF92CF92DF92EF92FF92D4
:100C8000CF93DF93EC016A017B01B22EE889F989E9
:100C900082E08083411581EE580761057105A1F05E
:100CA00060E079E08DE390E0A70196010E94E309FE
:100CB0002150310941095109569547953795279596
:100CC000211580E1380798F0E889F989108260E8F9
:100CD00074E88EE190E0A70196010E94E30921509B
:100CE0003109410951095695479537952795EC8566
:100CF000FD853083EE85FF852083188EEC89FD8984
:100D0000B082EA89FB89808180618083EA89FB89DE
:100D1000808188608083EA89FB8980818068808304
:100D2000EA89FB8980818F7D8083DF91CF91FF905D
:100D3000EF90DF90CF90BF9008951F920F920FB663
:100D40000F9211242F938F939F93EF93FF93E09132
:100D5000C001F091C1018081E091C601F091C7010D
:100D600082FD12C090818091C9018F5F8F732091A5
:100D7000CA01821751F0E091C901F0E0E055FE4F41
:100D8000958F8093C90101C08081FF91EF919F9160
:100D90008F912F910F900FBE0F901F9018951F925B
:100DA0000F920FB60F9211242F933F934F935F939F
:100DB0006F937F938F939F93AF93BF93EF93FF9323
:100DC00080EB91E00E949305FF91EF91BF91AF916D
:100DD0009F918F917F916F915F914F913F912F9153
:100DE0000F900FBE0F901F90189580EB91E00E941E
:100DF000580521E0892B09F420E0822F08951092F4
:100E0000B3011092B20188EE93E0A0E0B0E08093CD
:100E1000B4019093B501A093B601B093B70183E1FB
:100E200091E09093B1018093B00185EC90E09093B4
:100E3000BD018093BC0184EC90E09093BF0180934E
:100E4000BE0180EC90E09093C1018093C00181ECE1
:100E500090E09093C3018093C20182EC90E0909364
:100E6000C5018093C40186EC90E09093C701809304
:100E7000C6011092C9011092CA011092CB011092C2
:100E8000CC010895CF92DF92EF92FF920F931F93C0
:100E9000CF93DF937C016A01EB0100E010E00C15B9
:100EA0001D0571F06991D701ED91FC910190F081E0
:100EB000E02DC7010995892B19F00F5F1F4FEFCF68
:100EC000C801DF91CF911F910F91FF90EF90DF90BC
:100ED000CF9008956115710581F0DB010D90002020
:100EE000E9F7AD0141505109461B570BDC01ED916B
:100EF000FC910280F381E02D099480E090E0089558
:100F00000C946A07DC01ED91FC910190F081E02DD9
:100F100009948F929F92AF92BF92DF92EF92FF92CD
:100F20000F931F93CF93DF93CDB7DEB7A1970FB683
:100F3000F894DEBF0FBECDBF7C01F42FD52ECB01C0
:100F400019A2223008F42AE08E010F5D1F4F822E75
:100F5000912CA12CB12C6F2F7D2DA50194010E9405
:100F6000E309F22FD32ECA01015011096A3014F49B
:100F7000E0E301C0E7E3E60FD801EC93232B242B39
:100F8000252B49F7B801C7010E946A07A1960FB641
:100F9000F894DEBF0FBECDBFDF91CF911F910F91AF
:100FA000FF90EF90DF90BF90AF909F908F9008954B
:100FB000CF92DF92EF92FF920F931F93CF93DF9325
:100FC000EC016A017B012115310579F4E881F98191
:100FD0000190F081E02D642FDF91CF911F910F914F
:100FE000FF90EF90DF90CF9009942A303105E9F41B
:100FF00077FF1AC06DE20E9482078C0144275527B3
:10100000BA014C195D096E097F092AE0CE010E94E0
:101010008907800F911FDF91CF911F910F91FF9052
:10102000EF90DF90CF9008952AE0B701A601CE019E
:10103000DF91CF911F910F91FF90EF90DF90CF90B4
:101040000C9489079A01AB01662757FD6095762FAE
:101050000C94D8072115310541F4DC01ED91FC9188
:101060000190F081E02D642F09940C9489079A0176
:10107000462F50E060E070E00C942A089A01AB0122
:1010800060E070E00C942A0808950E94FB080E941A
:1010900044080E946501C5E8D5E00E9481012097BF
:1010A000E1F30E948505F9CF1F920F920FB60F92C0
:1010B00011242F933F938F939F93AF93BF9380916E
:1010C0004E0290914F02A0915002B0915102309186
:1010D0004D0223E0230F2D3720F40196A11DB11DF1
:1010E00005C026E8230F0296A11DB11D20934D02D5
:1010F00080934E0290934F02A0935002B0935102FE
:101100008091520290915302A0915402B0915502E5
:101110000196A11DB11D8093520290935302A0939A
:101120005402B0935502BF91AF919F918F913F911F
:101130002F910F900FBE0F901F9018953FB7F89406
:101140008091520290915302A0915402B0915502A5
:1011500026B5A89B05C02F3F19F00196A11DB11D12
:101160003FBF6627782F892F9A2F620F711D811D2F
:10117000911D42E0660F771F881F991F4A95D1F78E
:1011800008958F929F92AF92BF92CF92DF92EF928B
:10119000FF926B017C010E949E084B015C01C1140F
:1011A000D104E104F104F1F00E94CE090E949E08EE
:1011B000681979098A099B09683E73408105910580
:1011C00070F321E0C21AD108E108F10888EE880E18
:1011D00083E0981EA11CB11CC114D104E104F104E8
:1011E00029F7DDCFFF90EF90DF90CF90BF90AF90C9
:1011F0009F908F900895789484B5826084BD84B563
:10120000816084BD85B5826085BD85B5816085BD01
:10121000EEE6F0E0808181608083E1E8F0E010821A
:10122000808182608083808181608083E0E8F0E05B
:10123000808181608083E1EBF0E080818460808345
:10124000E0EBF0E0808181608083EAE7F0E080817C
:1012500084608083808182608083808181608083DC
:101260008081806880831092C1000895833081F06E
:1012700028F4813099F08230A1F008958730A9F0E8
:101280008830B9F08430D1F4809180008F7D03C024
:10129000809180008F7780938000089584B58F7748
:1012A00002C084B58F7D84BD08958091B0008F7792
:1012B00003C08091B0008F7D8093B0000895CF93DC
:1012C000DF9390E0FC01E458FF4F2491FC01E057CC
:1012D000FF4F8491882349F190E0880F991FFC010A
:1012E000E255FF4FA591B4918C559F4FFC01C591DC
:1012F000D4919FB7611108C0F8948C9120958223F6
:101300008C93888182230AC0623051F4F8948C91C6
:10131000322F309583238C938881822B888304C05D
:10132000F8948C91822B8C939FBFDF91CF9108957D
:101330000F931F93CF93DF931F92CDB7DEB7282F64
:1013400030E0F901E859FF4F8491F901E458FF4F6B
:101350001491F901E057FF4F04910023C9F088234D
:1013600021F069830E9436096981E02FF0E0EE0FD9
:10137000FF1FEC55FF4FA591B4919FB7F8948C9146
:10138000611103C01095812301C0812B8C939FBFF5
:101390000F90DF91CF911F910F9108950895AA1B8F
:1013A000BB1B51E107C0AA1FBB1FA617B70710F050
:1013B000A61BB70B881F991F5A95A9F78095909582
:1013C000BC01CD010895A1E21A2EAA1BBB1BFD0191
:1013D0000DC0AA1FBB1FEE1FFF1FA217B307E40714
:1013E000F50720F0A21BB30BE40BF50B661F771F6C
:1013F000881F991F1A9469F760957095809590954C
:101400009B01AC01BD01CF010895EE0FFF1F0590B8
:0A141000F491E02D0994F894FFCF49
:10141A0001E803FF54313A0054323A000A0D000041
:10142A00000000D6054207580571056305B405009A
:00000001FF
